:1000000069EF01F00000000000EF00F000000000C8
:0A0010000000000000000000F3D71C
:10001C00086A096A100E0C6E013408360936045051
:10002C00085E0550D8A0053C095ED8B007D0045036
:10003C0008260550D8B0053C0926D8900036013664
:06004C000C2EEAD71200A1
:100052004A6A050E4A5C0AE24A504824E16E000EE2
:100062004920E26E200EE66E4A2AF3D74A5048240F
:10007200E16E000E4920E26EE66A4A064A504824C2
:100082004B6E000E49204C6E0A0E046E000E056E79
:1000920046C000F047C001F0C0DF08C000F009C050
:1000A20001F0300E00264BC0E1FF4CC0E2FF00C061
:1000B200E6FF0A0E046E000E056E46C000F047C051
:1000C20001F0ABDF00C046F001C047F0000E01189E
:1000D20002E1000E001801E102D04A06CFD7120059
:0C00E2000E0E0D6E0D2EFED70000120059
:0E00EE00ACB202D00000FCD746C0ADFF12003D
:1000FC00426A436A3CC044F03DC045F0800E3D1856
:10010C00006E800E005C02E1000E3C5C0BE2010E06
:10011C00426E000E436E3C500008446E3DC045F0EC
:10012C00000E455644C046F045C047F03EC048F06E
:10013C003FC049F088DF060E406E000E416E000E87
:10014C00006E4150005C02E14050000819E2405042
:10015C003E24E16E41503F20E26E010E405C006E89
:10016C00000E4158016E00503E24E96E01503F20B4
:10017C00EA6EEECFE6FF010E405E000E415ADFD76D
:10018C003EC0E1FF3FC0E2FF200EE66E425043103E
:10019C001AE0406A416A40503E24E96E41503F20CB
:1001AC00EA6EEE50200A03E1404A412AF4D7010ED0
:1001BC00405E000E415A40503E24E16E41503F20BB
:0801CC00E26E2D0EE66E12003A
:1001D4003F6A3CC0E9FF3DC0EAFFEECF3EF03E502F
:1001E400000A0DE03EC046F080DF3F2A3F503C2429
:1001F400E96E000E3D20EA6EEECF3EF0F0D712001D
:060204000E0EC16E120097
:10020A00FF0E386EFF0E396EFF0E3A6EFF0E3B6E12
:10021A00C26A151C006E0050C116070EC012C08EAD
:04022A00C28012007C
:10022E00EE0E1E6E000E1F6E460E206E000E216E1E
:10023E00FF0E226EFF0E236E000E246E000E256E34
:10024E00FF0E166EFF0E176E000E186E000E196E54
:10025E00FF0E1A6EFF0E1B6E000E1C6E000E1D6E34
:10026E00AC8A900EAB6E948E949C9EAA03D0AECFA9
:06027E0000F0FBD71200A6
:100284000900F5CFE6FF0006FBE10106F9E11200E3
:10029400C26A151C006E0050C116070EC012C08E33
:1002A4003CC000F000360090003600900050C212AE
:1002B400C28015DFC282C2A201D0FDD7C4CF01F033
:0E02C400006AC3500012000E0112C290120018
:1002D20098EC01F099DF95DFB886B06ACF0EAF6E69
:1002E200AC84A4DF3C6AD5DF00C036F001C037F031
:1002F20000C03CF001C03DF0260E3E6E000E3F6E87
:10030200FCDE260E3C6E000E3D6E63DF060E0B6EAB
:10031200130E0C6EAD0E0D6E0D2EFED70C2EFCD7ED
:0C0322000B2EFAD700000000DDD7FFD73B
:1003300010EE15F0010E006E010E016E2E0EF66E1F
:0E034000030EF76E000EF86E42EC01F0120094
:01032E00309E
:020000040030CA
:0D000100021F1EFF8381FF0FC00FE00F40A4
:00000001FF
