:1000000056EF00F00000000000EF00F000000000DC
:0A0010000000000000000000F3D71C
:10001C00AECF01F0ABA202D0AB98AB8801C000F020
:02002C001200C0
:0E002E00ACB202D00000FCD74AC0ADFF1200F9
:10003C000900F5CFE6FF0006FBE10106F9E112002D
:10004C002E0E356E000E366E4A0E376E000E386E62
:10005C001C0E396E000E3A6E000E3B6E000E3C6E9E
:10006C00A20E3D6E000E3E6E000E3F6E000E406EF8
:10007C00FF0E446EFF0E456E000E466E000E476E70
:10008C00AC8A900EAB6E948E949C9EAA03D0AECF8D
:06009C0000F0FBD712008A
:0A00A200000E9EBA010E006E12005F
:1000AC0079EC00F0B886B06ACF0EAF6EAC84C8DFC6
:1000BC00F2DF005206E0ACDF00C041F000C04AF0B5
:0600CC00B0DFF6D7FFD7FC
:1000F20010EE15F0200E006E010E016ED20EF66E9D
:0E010200000EF76E000EF86E1EEC00F01200FC
:0800D200430042004900480010
:0800DA00420049004800430008
:0800E200490048004300420000
:0800EA004800430042004900F8
:020000040030CA
:0D000100021F1EFF8381FF0FC00FE00F40A4
:00000001FF
