:1000000071EF00F00000000000EF00F000000000C1
:0A0010000000000000000000F3D71C
:0E001C00ACB202D00000FCD76CC0ADFF1200E9
:0A002A00000E9EBA010E006E1200D7
:10003400AECF01F0ABA202D0AB98AB8801C000F008
:020044001200A8
:100046006B6A68C0E9FF69C0EAFFEECF6AF06A50E2
:10005600000A0DE06AC06CF0DEDF6B2A6B50682484
:10006600E96E000E6920EA6EEECF6AF0F0D7120054
:100076000900F5CFE6FF0006FBE10106F9E11200F3
:06008600956A836A120076
:10008C001C0E5C6E000E5D6E6C0E5E6E000E5F6E76
:10009C00340E586E000E596E000E5A6E000E5B6ECA
:1000AC002A0E646E000E656E000E666E000E676E94
:1000BC00FF0E606EFF0E616E000E626E000E636EC0
:1000CC00AC8A900EAB6E948E949C9EAA03D0AECF4D
:0600DC0000F0FBD712004A
:1000E200DBEC00F0CFDFB886B06ACF0EAF6EAC8427
:1000F200CCDF9ADF00523DE09CDF00C055F030D0EB
:100102008380839283948386430E686E000E696EA9
:1001120099DF0D0E6C6E81DF0A0E6C6E7EDF29D0C8
:100122008390838283848396350E686E000E696E97
:1001320089DF0D0E6C6E71DF0A0E6C6E6EDF19D0E8
:1001420083908392839483964B0E686E000E696E41
:1001520079DF0D0E6C6E61DF0A0E6C6E5EDF09D008
:100162005550480ACDE05550410ADAE05550500A40
:06017200E7E0BFD7FFD754
:1001B60010EE15F03E0E006E010E016E780EF66E14
:0E01C600010EF76E000EF86E3BEC00F012001A
:0801780057005600540053002B
:08018000560054005300570023
:0801880054005300570056001B
:08019000530057005600540013
:0E01980020414E54492D484F52C152494F004C
:0801A600484F52C152494F00BD
:0801AE002050415241444F0072
:020000040030CA
:0D000100021F1EFF8381FF0FC00FE00F40A4
:00000001FF
