:10000000FBEF06F00000000000EF00F00000000031
:0A0010000000000000000000F3D71C
:06001C00000000001200CC
:100022000F0E0C6E470E0D6E0D2EFED70C2EFCD74A
:06003200000000001200B6
:0A003800210E0D6E0D2EFED71200F2
:100042000B840BAE2CEF00F0010E036E026A016A04
:0A005200006A0A360232FF0E1200A7
:08005C000AAE029E000E120024
:100064000B820BAE3CEF00F0036802680168006885
:080074000A360232FF0E1200F1
:0E007C00026A016A006A086A036A000E120036
:10008A000001A9BF02D0839E01D0838EA9BD02D0F0
:10009A00839C01D0838CA9BB02D0839A01D0838A26
:1000AA00A9B902D0839801D083887AB002D084801B
:1000BA0001D084908484ADDF8494A9B702D0839E52
:1000CA0001D0838EA9B502D0839C01D0838CA9B3B9
:1000DA0002D0839A01D0838AA9B102D0839801D031
:1000EA0083887AB002D0848001D08490848491DF9E
:0E00FA0084947AA002D090DF01D099DF12002A
:100108000A6A0350D8A40A800750D8A40A820A5061
:10011800D8B4E7EF00F0030AD8B4A0EF00F00AB0B3
:100128009BEF00F006AEE5EF00F0E3EF00F002AE63
:10013800E3EF00F0E5EF00F00250800B0A6E029E3C
:100148000650800B069E0A18D8B4B1EF00F00A508A
:10015800D8B4E3EF00F0E5EF00F00750035CD8B443
:10016800BBEF00F0D8A0D7EF00F0DDEF00F00650AD
:10017800025CD8B4C5EF00F0D8A0D7EF00F0DDEFEF
:1001880000F00550015CD8B4CFEF00F0D8A0D7EF4D
:1001980000F0DDEF00F00450005CD8B4E7EF00F0A9
:1001A800D8B0DDEF00F00A52D8B4E5EF00F0E3EF85
:1001B80000F00A52D8B4E3EF00F0E5EF00F0D88081
:0E01C8001200D8901200D880D88412001200C5
:0801D6000B6A0B86FF0E1200FC
:0C01DE000E0E0D6E0D2EFED7000012005C
:1001EA00A5C004F0A6C005F004C002F005C003F0E3
:1001FA00044A052AA7C000F0A8C001F00001A74BD5
:10020A00A82B00C0E9FF01C0EAFF02C0E1FF03C05A
:10021A00E2FFEECFE6FF02C0E9FF03C0EAFFEE52BB
:0E022A0001E0E2D7A5C000F0A6C001F012006E
:0C0238007A90A5C0A9F025DF7A801200A2
:0E024400ACB202D00000FCD7A5C0ADFF120086
:100252000D6A086A0050D8B4000C04180A6E0ABE6F
:100262000D1E0B6A04AE02D0041E042A00AE02D098
:10027200001E002A005004100A6E0ABE1FD004504D
:10028200085E003600340836045008260036060E92
:100292000C6E00340836045000B0085E00A0082638
:1002A20000360C2EF6D700A008260BB015D00DAEE6
:1002B200000C001E002A081E082A000C04AE09D0F9
:1002C20000BE04D00050086E006AF1D7006A002A0E
:1002D200000C001E0B2AD3D7082A0450085CD8A4AD
:0E02E200E6D7086A002A00AEE2D7FF0C120031
:1002F000086A096A000E07620364FDEF01F002500C
:1003000006180A6E075003267E0ED8A08EEF01F065
:10031000035ED8B001EF02F092EF01F0035ED8A0C7
:1003200005EF02F0028E068E02C00EF001C00BF047
:1003300000C00DF000500402F4CF0CF00150050293
:10034000F4CF00F0F3CF08F00402F3500C26F45081
:100350000822000E00220D500502F3500C26F45026
:100360000822000E002202500402F3500826F45026
:10037000002202500502016A000E0122F3500026FD
:10038000F45001220D500602F3500826F4500022CA
:10039000026A000E012202220B500602F3500026D0
:1003A000F4500122000E02220E500602F3500126E4
:1003B000F450022202BEE5EF01F0083600360136A5
:1003C00002360306D8B405EF02F0F8EF01F0D8804A
:1003D000800E08640030000E002201220222D8A004
:1003E000F8EF01F0023201320032034A01EF02F06D
:1003F0000AAE029E000E07EF02F0010E3FDE07EF8D
:1004000002F0020E2FDE07EF02F0040E1ADE1200D9
:100410000C6A0E6A0250D8A421EF02F001C002F06B
:1004200000C001F0006A0E860250D8A421EF02F04D
:1004300001C002F0016A0E960E880250D8B433EF64
:1004400002F00E50035ED8A4D8A038EF02F0D89086
:1004500002BE3DEF02F0003601360236032E28EFD1
:1004600002F038EF02F0010E0C6E08DE40EF02F0F1
:10047000020E0C6EE6DD40EF02F0040E0C6EEEDDB7
:02048000120068
:1004820010D0800E0001996F1AD0C00E996F17D04C
:10049200940E996F14D0D40E996F11D0800E996F6B
:1004A2000ED000019951010AECE09951020AEDE0E7
:1004B2009951030AEDE09951040AEDE0EFD79A054C
:1004C200006E9951002600C099F000C0A9F0DCDD51
:1004D2007A907F6A7F509B25E96E000E9C21EA6E1E
:1004E200EE520BE07F509B25E96E000E9C21EA6ED6
:0E04F200EECFA5F0A0DE7F2AEDD77A801200B3
:10050000C26A5B1C006E0050C116070EC012C08E7E
:100510007FC000F000360090003600900050C212FC
:10052000C2805DDEC282C2A201D0FDD7C4CF01F07D
:0E053000006AC3500012000E0112C2901200A9
:10053E000050086E0150006E016A026A036A0B6A6F
:10054E000C6A960E036E0A6A00C001F008C000F035
:08055E00086A026A56DF120070
:100566000450000A12E10550000A0FE10650000A85
:100576000CE10750000A09E1FF0E006EFF0E016E46
:100586007F0E026EFF0E036EA4D0086A096A07503A
:10059600D8B45EEF03F00350D8B462EF03F0025014
:1005A60006180A6E028E068E0E6A02C008F001C098
:1005B6000CF000C00DF004500D5E0550D8A0053CAF
:1005C6000C5E0650D8A0063C085E086A0C6A0D6AE6
:1005D600D8A0F5EF02F0D89002320132003208328C
:1005E600010E0E6E0750035ED8A002EF03F07E0EDA
:1005F6000E240326D8B066EF03F008EF03F07E0E54
:100606000E240326D8A06AEF03F0180E0B6E0D36E3
:100616000C3608360036013602360E360450005EB9
:100626000550D8A0053C015E0650D8A0063C025EE7
:1006360006340E120EA023EF03F00D802EEF03F00A
:10064600045000260550D8B0053C01260650D8B007
:10065600062802260D900B2E0AEF03F054EF03F046
:10066600D8900036013602360E360450005E05502C
:10067600D8A0053C015E0650D8A0063C025E0634B2
:100686000E10010B0D26D8B00C2AD8B4082AD8A40F
:1006960054EF03F008320C320D32032AD8B466EF59
:1006A60003F00AAE089E0850026E0C50016E0D5003
:1006B600006E6CEF03F0010E8BDD6CEF03F0020EA3
:1006C600DADC6CEF03F0040ECADC6CEF03F0080E04
:0406D600B5DC12007D
:1006DA000001A36BA46B99C09FF09AC0A0F09BC0C5
:1006EA00A1F09CC0A2F0A251FF0A08E1A151FF0AA1
:1006FA0005E1A051FF0A02E19F51FF0A0CE19DC0EA
:10070A00A5F09EC0A6F0410EA76F000EA86F68DD87
:10071A00030E006EEBD1010E7F6EA1AF0ED0800EDC
:10072A00A119006E00C0A1F07F2A9DC0E1FF9EC002
:10073A00E2FF2D0EE66E9D4B9E2B000E006EA21957
:10074A0008E10050A11905E10050A01902E19F51EA
:10075A00000A0BE19DC0A5F09EC0A6F03F0EA76F50
:10076A00000EA86F3DDD006AC1D1A251FF0A08E15F
:10077A00A151000A05E1A051000A02E19F51000AB5
:10078A000CE19DC0A5F09EC0A6F03B0EA76F000E1F
:10079A00A86F26DD7FC000F0A9D1000E046E000EFE
:1007AA00056E000E066E7F0E076E9FC000F0A0C099
:1007BA0001F0A1C002F0A2C003F0A1DC010ED8B082
:1007CA00000E006E00521BE09FC000F0A0C001F0B6
:1007DA00A1C002F0A2C003F0000E046E000E056E66
:1007EA00200E066E820E076E7EDD00C09FF001C0ED
:1007FA00A0F002C0A1F003C0A2F0A407CED7000E59
:10080A00046E000E056E200E066E820E076E9FC0E5
:10081A0000F0A0C001F0A1C002F0A2C003F06FDC9A
:10082A00000ED8B0010E006E00521BE09FC000F00F
:10083A00A0C001F0A1C002F0A2C003F0CD0E046E68
:10084A00CC0E056E4C0E066E7B0E076E4CDD00C09C
:10085A009FF001C0A0F002C0A1F003C0A2F0A42B37
:10086A00CED7FF0E9F15086EFF0EA015096E7F0EDC
:10087A00A1150A6E000EA2150B6E08C004F009C07D
:10088A0005F00AC006F00BC007F0043604900536DE
:10089A0006360736000E9F15006E000EA015016E73
:1008AA00000EA115026EFF0EA215036E00C09FF086
:1008BA0001C0A0F002C0A1F003C0A2F004509F1131
:1008CA00006E0550A011016E0650A111026E07506C
:1008DA00A211036E00C09FF001C0A0F002C0A1F0F7
:1008EA0003C0A2F07F0EA25D006E00C080F0010E70
:1008FA00A26F00C004F09FC000F0A0C001F0A1C028
:10090A0002F0A2C003F0045007E00036009001365E
:10091A0002360336FF0FF8D700C09FF001C0A0F0DF
:10092A0002C0A1F003C0A2F09DC0E1FF9EC0E2FF99
:10093A00A251300FE66E9D4B9E2B800EA419006EBD
:10094A00800E010A005C08E3800E060A006E800E23
:10095A00A419005C01E30AD09DC0E1FF9EC0E2FF3A
:10096A002E0EE66E9D4B9E2B010EA36F060E806F18
:10097A008051000A54E0A26B9FC000F0A0C001F0B1
:10098A00A1C002F0A2C003F0003600900136023680
:10099A000336003600900136023603369F51002690
:1009AA00A0510122A1510222A251032200C09FF0AC
:1009BA0001C0A0F002C0A1F003C0A2F09FC000F0E5
:1009CA00A0C001F0A1C002F0A2C003F0003600905E
:1009DA0001360236033600C09FF001C0A0F002C003
:1009EA00A1F003C0A2F09DC0E1FF9EC0E2FFA251A8
:1009FA00300FE66E9D4B9E2BA351000A0EE1A40711
:100A0A00A451000A0AE19DC0E1FF9EC0E2FF2E0E3A
:100A1A00E66E9D4B9E2B010EA36F8007A9D7FF0E92
:100A2A009D25E96EFF0E9E21EA6EEE50300A05E121
:100A3A00010E9D5F000E9E5BF2D7FF0E9D25E96EAB
:100A4A00FF0E9E21EA6EEE502E0A04E1010E9D5F12
:100A5A00000E9E5BA451000A43E09DC0E1FF9EC0C8
:100A6A00E2FF650EE66E9D4B9E2B800EA419006E6A
:100A7A00800E000A005C0BE29DC0E1FF9EC0E2FF0F
:100A8A002D0EE66E9D4B9E2BA4510008A46FA4C0A8
:100A9A0080F0800E090A006E800EA419005C0FE235
:100AAA000A0E046E80C000F029EC01F09DC0E1FF3F
:100ABA009EC0E2FF0050300FE66E9D4B9E2B0A0E41
:100ACA00046E80C000F029EC01F008C000F09DC05F
:100ADA00E1FF9EC0E2FF0050300FE66E9D4B9E2B59
:0E0AEA009DC0E1FF9EC0E2FFE66A006A1200B6
:100AF8000001806B99C0E9FF9AC0EAFFEECF7FF052
:100B08007F50000A0FE07FC0A5F022EC01F0000141
:100B1800802B80519925E96E000E9A21EA6EEECF5E
:060B28007FF0EED7120081
:100B2E00969496909598959A959C959E849484907B
:100B3E00839E839C839A839811EC00F011EC00F055
:100B4E0011EC00F0838A838884840EEC00F0849488
:100B5E0011EC00F084840EEC00F0849411EC00F0A3
:100B6E0084840EEC00F0849411EC00F0839884845D
:100B7E000EEC00F0849411EC00F084840EEC00F086
:100B8E008494839A838E84840EEC00F0849411EC0A
:100B9E0000F0839E838884840EEC00F08494839806
:100BAE0084840EEC00F0849411EC00F084840EEC3E
:100BBE0000F08494838884840EEC00F0849411EC0D
:100BCE0000F0839884840EEC00F08494838E838CE2
:100BDE00838A838884840EEC00F0849411EC00F0F8
:040BEE007A801200F7
:100BF2000E0EC16E9490949294949496966A8492F6
:020C02001200DE
:100C04000900F5CFE6FF0006FBE10106F9E1120059
:100C1400FF0E0001956FFF0E966FFF0E976FFF0E8C
:100C2400986FC26A5B1C006E0050C116070EC0129A
:060C3400C08EC280120018
:100C3A00290E0001996F000E9A6F59DF690E996F9C
:100C4A00000E9A6F54DF260E996F000E9A6F4FDFCF
:100C5A00300E996F000E9A6F4ADF79C0A5F022EC28
:100C6A0001F0380E0001996F000E9A6F40DF340EC2
:100C7A00996F000E9A6F3BDF68C0A5F022EC01F075
:100C8A00190E0001996F000E9A6F31DF150E996FD8
:100C9A00000E9A6F2CDF66C0A5F022EC01F01C0E44
:100CAA000001996F000E9A6F22DF220E996F000ED3
:100CBA009A6F1DDF67C0A5F022EC01F01F0E00013C
:0A0CCA00996F000E9A6F13DF1200FD
:100CD400010E0001996F010E9A6F450E9B6F000E75
:100CE4009C6F41EC02F0020E996F010E9A6F540E44
:100CF4009B6F000E9C6F41EC02F0020E996F070E81
:100D04009A6F690E9B6F000E9C6F41EC02F0020E0D
:100D1400996F0C0E9A6F5C0E9B6F000E9C6F41ECEA
:100D240002F0070E0B6E170E0C6E6A0E0D6E0D2E72
:0E0D3400FED70C2EFCD70B2EFAD700001200B3
:100D4200440E7B6E020E7C6EA50E7D6E000E7E6ED4
:100D5200FF0E0001896FFF0E8A6F000E8B6F000E6F
:100D62008C6FFF0E856FFF0E866F000E876F000E71
:100D7200886FFF0E816FFF0E826F000E836F000E71
:100D8200846FAC8A900EAB6E948E949C9EAA03D014
:080D9200AECF00F0FBD7120008
:100D9A007F6A80EC02F09FEC02F000C091F001C083
:100DAA0092F002C093F003C094F0E10E046E7A0E42
:100DBA00056E4C0E066E820E076EB3EC02F000C092
:100DCA008DF001C08EF002C08FF003C090F000C019
:100DDA0099F001C09AF002C09BF003C09CF0690E22
:0C0DEA0000019D6F000E9E6F73DC120074
:100DF600FFEC07F00CDFFADE97DE010EA96F45EC7B
:100E060000F00C0EA96F45EC00F0B886B06ACF0E64
:100E1600AF6EAC8493DFBEDF0DDF59DF000E046ECC
:100E2600000E056E100E066E830E076E8DC000F066
:100E36008EC001F08FC002F090C003F084EC00F089
:100E4600010ED8B0000E006E00520DE0310E796E24
:100E5600300E686E300E666E300E676E829082823D
:100E6600828482869ED0000E046E000E056E100EE1
:100E7600066E830E076E8DC000F08EC001F08FC027
:100E860002F090C003F084EC00F0000ED8B0010E22
:100E9600006E005225E0000E046E000E056E000E78
:100EA600066E840E076E8DC000F08EC001F08FC0F6
:100EB60002F090C003F084EC00F0010ED8B0000EF2
:100EC600006E00520DE0310E796E310E686E300EF6
:100ED600666E300E676E829082928284828661D0C0
:100EE600000E046E000E056E000E066E840E076E72
:100EF6008DC000F08EC001F08FC002F090C003F0EC
:100F060084EC00F0000ED8B0010E006E005225E011
:100F1600000E046E000E056E480E066E840E076EF9
:100F26008DC000F08EC001F08FC002F090C003F0BB
:100F360084EC00F0010ED8B0000E006E00520DE0F9
:100F4600310E796E310E686E310E666E300E676E3A
:100F5600829082928294828624D0000E046E000EC5
:100F6600056E480E066E840E076E8DC000F08EC0AC
:100F760001F08FC002F090C003F084EC00F0000E88
:100F8600D8B0010E006E00520CE0310E796E310EB3
:100F9600686E310E666E310E676E82908292829412
:060FA600829639D7FFD747
:100FFE0010EE15F0510E006E010E016EAC0EF66E77
:0E100E000F0EF76E000EF86E02EC06F01200E8
:040FAC0044333A0090
:030FB000202000FE
:030FB300202000FB
:030FB600202000F8
:040FB90044343A0082
:030FBD00202000F1
:070FC00076617A616F3A00CF
:040FC70044313A0077
:040FCB0044323A0072
:030FCF00202000DF
:040FD200494E46003E
:020FD6003000E9
:040FD8004E614E0018
:0F0FDC00434F4E54524F4C452056415A414F00FF
:070FEB0056415A414F3A0044
:010FF20030CE
:0A0FF3004C2F6D696E2020202000B5
:020000040030CA
:0D000100021F1EFF8381FF0FC00FE00F40A4
:00000001FF
