:1000000047EF05F00000000000EF00F000000000E6
:0A0010000000000000000000F3D71C
:08001C000AAE029E000E120064
:100024000B820BAE1CEF00F00368026801680068E5
:080034000A360232FF0E120031
:0E003C00026A016A006A086A036A000E120076
:10004A000B840BAE30EF00F0010E036E026A016AF8
:0A005A00006A0A360232FF0E12009F
:0C0064000E0E0D6E0D2EFED700001200D7
:080070000B6A0B86FF0E120063
:100078000C6A0E6A0250D8A455EF00F001C002F0D5
:1000880000C001F0006A0E860250D8A455EF00F0B7
:1000980001C002F0016A0E960E880250D8B467EFCC
:1000A80000F00E50035ED8A4D8A06CEF00F0D890F2
:1000B80002BE71EF00F0003601360236032E5CEF07
:1000C80000F06CEF00F0010E0C6EB4DF74EF00F07E
:1000D800020E0C6EB6DF74EF00F0040E0C6E9ADFA1
:0200E800120004
:1000EA005AC004F05BC005F004C002F005C003F07A
:1000FA00044A052A5CC000F05DC001F05C4A5D2A32
:10010A0000C0E9FF01C0EAFF02C0E1FF03C0E2FF4D
:10011A00EECFE6FF02C0E9FF03C0EAFFEE5201E0BC
:0C012A00E3D75AC000F05BC001F01200E7
:100136000D6A086A0050D8B4000C04180A6E0ABE8C
:100146000D1E0B6A04AE02D0041E042A00AE02D0B5
:10015600001E002A005004100A6E0ABE1FD004506A
:10016600085E003600340836045008260036060EAF
:100176000C6E00340836045000B0085E00A0082655
:1001860000360C2EF6D700A008260BB015D00DAE03
:10019600000C001E002A081E082A000C04AE09D016
:1001A60000BE04D00050086E006AF1D7006A002A2B
:1001B600000C001E0B2AD3D7082A0450085CD8A4CA
:0E01C600E6D7086A002A00AEE2D7FF0C12004E
:1001D400086A096A000E076203646FEF01F00250B7
:1001E40006180A6E075003267E0ED8A000EF01F011
:1001F400035ED8B073EF01F004EF01F0035ED8A002
:1002040077EF01F0028E068E02C00EF001C00BF0F3
:1002140000C00DF000500402F4CF0CF001500502B0
:10022400F4CF00F0F3CF08F00402F3500C26F4509E
:100234000822000E00220D500502F3500C26F45043
:100244000822000E002202500402F3500826F45043
:10025400002202500502016A000E0122F35000261A
:10026400F45001220D500602F3500826F4500022E7
:10027400026A000E012202220B500602F3500026ED
:10028400F4500122000E02220E500602F350012601
:10029400F450022202BE57EF01F008360036013650
:1002A40002360306D8B477EF01F06AEF01F0D88084
:1002B400800E08640030000E002201220222D8A021
:1002C4006AEF01F0023201320032034A73EF01F0A7
:1002D4000AAE029E000E79EF01F0010EADDE79EF59
:1002E40001F0020E9DDE79EF01F0040EACDE120087
:1002F4000A6A0350D8A40A800750D8A40A820A5074
:10030400D8B4DDEF01F0030AD8B496EF01F00AB0D7
:1003140091EF01F006AEDBEF01F0D9EF01F002AE90
:10032400D9EF01F0DBEF01F00250800B0A6E029E60
:100334000650800B069E0A18D8B4A7EF01F00A50A5
:10034400D8B4D9EF01F0DBEF01F00750035CD8B467
:10035400B1EF01F0D8A0CDEF01F0D3EF01F00650DA
:10036400025CD8B4BBEF01F0D8A0CDEF01F0D3EF1D
:1003740001F00550015CD8B4C5EF01F0D8A0CDEF71
:1003840001F0D3EF01F00450005CD8B4DDEF01F0CC
:10039400D8B0D3EF01F00A52D8B4DBEF01F0D9EFB3
:1003A40001F00A52D8B4D9EF01F0DBEF01F0D880A4
:0E03B4001200D8901200D880D88412001200D7
:0E03C200ACB202D00000FCD75AC0ADFF120052
:1003D000C26A151C006E0050C116070EC012C08EF6
:1003E0004CC000F000360090003600900050C21261
:1003F000C28038DEC282C2A201D0FDD7C4CF01F0D4
:0E040000006AC3500012000E0112C2901200DA
:10040E00FF0E206EFF0E216EFF0E226EFF0E236E6C
:10041E00C26A151C006E0050C116070EC012C08EA7
:04042E00C280120076
:0C0432000E0EC16E9490949294941200EF
:10043E00C20E486E030E496E5A0E4A6E000E4B6E79
:10044E00FF0E3C6EFF0E3D6E000E3E6E000E3F6EBA
:10045E00FF0E406EFF0E416E000E426E000E436E9A
:10046E00FF0E446EFF0E456E000E466E000E476E7A
:10047E00AC8A900EAB6E948E949C9EAA03D0AECF97
:06048E0000F0FBD7120094
:100494000450000A12E10550000A0FE10650000A58
:1004A4000CE10750000A09E1FF0E006EFF0E016E19
:1004B4007F0E026EFF0E036EA4D0086A096A07500D
:1004C400D8B4F5EF02F00350D8B4F9EF02F00250BB
:1004D40006180A6E028E068E0E6A02C008F001C06B
:1004E4000CF000C00DF004500D5E0550D8A0053C82
:1004F4000C5E0650D8A0063C085E086A0C6A0D6AB9
:10050400D8A08CEF02F0D8900232013200320832C7
:10051400010E0E6E0750035ED8A099EF02F07E0E16
:100524000E240326D8B0FDEF02F09FEF02F07E0EFA
:100534000E240326D8A001EF03F0180E0B6E0D361F
:100544000C3608360036013602360E360450005E8C
:100554000550D8A0053C015E0650D8A0063C025EBA
:1005640006340E120EA0BAEF02F00D80C5EF02F0B1
:10057400045000260550D8B0053C01260650D8B0DA
:10058400062802260D900B2EA1EF02F0EBEF02F0ED
:10059400D8900036013602360E360450005E0550FF
:1005A400D8A0053C015E0650D8A0063C025E063485
:1005B4000E10010B0D26D8B00C2AD8B4082AD8A4E2
:1005C400EBEF02F008320C320D32032AD8B4FDEFFF
:1005D40002F00AAE089E0850026E0C50016E0D50D7
:1005E400006E03EF03F0010E41DD03EF03F0020E92
:1005F40023DD03EF03F0040E13DD03EF03F0080E15
:0406040022DD1200E1
:10060800586A596A4CC054F04DC055F04EC056F067
:100618004FC057F05750FF0A08E15650FF0A05E14E
:100628005550FF0A02E15450FF0A0CE150C05AF03D
:1006380051C05BF0160E5C6E000E5D6E52DD030E4F
:10064800006EEBD1010E526E56AE0ED0800E5618CB
:10065800006E00C056F0522A50C0E1FF51C0E2FFC0
:100668002D0EE66E504A512A000E006E571808E10A
:100678000050561805E10050551802E15450000A80
:100688000BE150C05AF051C05BF01A0E5C6E000EC0
:100698005D6E27DD006AC1D15750FF0A08E1565048
:1006A800000A05E15550000A02E15450000A0CE125
:1006B80050C05AF051C05BF01C0E5C6E000E5D6EAF
:1006C80010DD52C000F0A9D1000E046E000E056EB8
:1006D800000E066E7F0E076E54C000F055C001F084
:1006E80056C002F057C003F001DE010ED8B0000E6C
:1006F800006E00521BE054C000F055C001F056C017
:1007080002F057C003F0000E046E000E056E200EB6
:10071800066E820E076E5ADD00C054F001C055F017
:1007280002C056F003C057F05906CED7000E046E2B
:10073800000E056E200E066E820E076E54C000F085
:1007480055C001F056C002F057C003F0CFDD000ECF
:10075800D8B0010E006E00521BE054C000F055C026
:1007680001F056C002F057C003F0CD0E046ECC0E57
:10077800056E4C0E066E7B0E076E28DD00C054F029
:1007880001C055F002C056F003C057F0592ACED721
:10079800FF0E5414086EFF0E5514096E7F0E561482
:1007A8000A6E000E57140B6E08C004F009C005F05D
:1007B8000AC006F00BC007F004360490053606366A
:1007C8000736000E5414006E000E5514016E000E0C
:1007D8005614026EFF0E5714036E00C054F001C089
:1007E80055F002C056F003C057F004505410006E84
:1007F80005505510016E06505610026E07505710DE
:10080800036E00C054F001C055F002C056F003C09A
:1008180057F07F0E575C006E00C053F0010E576E04
:1008280000C004F054C000F055C001F056C002F0FA
:1008380057C003F0045007E0003600900136023636
:100848000336FF0FF8D700C054F001C055F002C0BE
:1008580056F003C057F050C0E1FF51C0E2FF5750B7
:10086800300FE66E504A512A800E5918006E800EDD
:10087800010A005C08E3800E060A006E800E591813
:10088800005C01E30AD050C0E1FF51C0E2FF2E0E28
:10089800E66E504A512A010E586E060E536E53509A
:1008A800000A54E0576A54C000F055C001F056C021
:1008B80002F057C003F000360090013602360336C6
:1008C8000036009001360236033654500026555043
:1008D8000122565002225750032200C054F001C092
:1008E80055F002C056F003C057F054C000F055C090
:1008F80001F056C002F057C003F0003600900136F0
:100908000236033600C054F001C055F002C056F05C
:1009180003C057F050C0E1FF51C0E2FF5750300FFD
:10092800E66E504A512A5850000A0EE159065950AD
:10093800000A0AE150C0E1FF51C0E2FF2E0EE66E48
:10094800504A512A010E586E5306A9D7FF0E50245B
:10095800E96EFF0E5120EA6EEE50300A05E1010EF5
:10096800505E000E515AF2D7FF0E5024E96EFF0E6A
:100978005120EA6EEE502E0A04E1010E505E000E80
:10098800515A5950000A43E050C0E1FF51C0E2FFFC
:10099800650EE66E504A512A800E5918006E800E78
:1009A800000A005C0BE250C0E1FF51C0E2FF2D0ECF
:1009B800E66E504A512A59500008596E59C053F0F2
:1009C800800E090A006E800E5918005C0FE20A0EAC
:1009D800046E53C000F09BEC00F050C0E1FF51C022
:1009E800E2FF0050300FE66E504A512A0A0E046E9C
:1009F80053C000F09BEC00F008C000F050C0E1FFCD
:100A080051C0E2FF0050300FE66E504A512A50C0E4
:0C0A1800E1FF51C0E2FFE66A006A120034
:100A24004F6A4CC0E9FF4DC0EAFFEECF4EF04E5086
:100A3400000A0DE04EC05AF0C2DC4F2A4F504C243D
:100A4400E96E000E4D20EA6EEECF4EF0F0D71200A4
:100A54000050086E0150006E016A026A036A0B6A54
:100A64000C6A960E036E0A6A00C001F008C000F01A
:0A0A7400086A026A3CEC00F0120070
:100A7E000900F5CFE6FF0006FBE10106F9E11200E1
:100A8E0034EC06F0BDDCCEDCB886B06ACF0EAF6EAD
:100A9E00AC84CEDC4C6A95DCD6DF00C024F001C0FD
:100AAE0025F002C026F003C027F0000E046E800E63
:100ABE00056E4C0E066E860E076EE5DC00C028F045
:100ACE0001C029F002C02AF003C02BF000C04CF088
:100ADE0001C04DF002C04EF003C04FF02C0E506E10
:100AEE00000E516E8ADD2C0E4C6E000E4D6E93DF95
:100AFE000B0E0B6E260E0C6E5D0E0D6E0D2EFED7B2
:100B0E000C2EFCD70B2EFAD700000000000E046E40
:100B1E00000E056E000E066E7F0E076E28C000F0EA
:100B2E0029C001F02AC002F02BC003F07AEC01F0CC
:100B3E00010ED8B0000E006E005204E08280828258
:100B4E00828483D0000E046E000E056E000E066EBB
:100B5E007F0E076E28C000F029C001F02AC002F0F7
:100B6E002BC003F07AEC01F0000ED8B0010E006E2F
:100B7E0000521CE028C004F029C005F02AC006F07F
:100B8E002BC007F0000E006E000E016E400E026EBE
:100B9E00800E036E7AEC01F0000ED8B0010E006EDE
:100BAE00005204E08290828282844FD0000E046E46
:100BBE00000E056E400E066E800E076E28C000F009
:100BCE0029C001F02AC002F02BC003F07AEC01F02C
:100BDE00000ED8B0010E006E00521CE028C004F0CA
:100BEE0029C005F02AC006F02BC007F0000E006EDB
:100BFE00000E016E000E026E810E036E7AEC01F095
:100C0E00000ED8B0010E006E005204E08290829267
:100C1E0082841BD028C004F029C005F02AC006F03B
:100C2E002BC007F0000E006E000E016E000E026E5D
:100C3E00810E036E7AEC01F0010ED8B0000E006E3C
:0E0C4E00005203E082908292829424D7FFD756
:100C680010EE15F00B0E006E010E016E5C0EF66EA6
:0E0C78000C0EF76E000EF86E3FEC05F0120049
:010C5C003067
:040C5D004E614E0096
:020C6100300061
:040C6300494E4600B0
:020000040030CA
:0D000100021F1EFF8381FF0FC00FE00F40A4
:00000001FF
