:100000005AEF00F00000000000EF00F000000000D8
:0A0010000000000000000000F3D71C
:10001C00AECF01F0ABA202D0AB98AB8801C000F020
:02002C001200C0
:0E002E00ACB202D00000FCD726C0ADFF12001D
:10003C000900F5CFE6FF0006FBE10106F9E112002D
:0A004C00000E9EBA010E006E1200B5
:08005600956AFF0E836E120093
:10005E002E0E226E000E236E260E246E000E256EC0
:10006E001C0E1D6E000E1E6E000E1F6E000E206EFC
:10007E004C0E156E000E166E000E176E000E186EDC
:10008E00FF0E196EFF0E1A6E000E1B6E000E1C6E0A
:10009E00AC8A900EAB6E948E949C9EAA03D0AECF7B
:0600AE0000F0FBD7120078
:1000B400D0DFB886B06ACF0EAF6EAC84CEDFC4DFBB
:1000C400005206E0A9DF00C021F000C026F0ADDF39
:1000D40010D083808382838418D083908382838426
:1000E40014D083908392838410D0839083928394DA
:1000F4000CD02150410AEDE02150420AEEE021509B
:0E010400430AEFE02150440AF0E0D9D7FFD7BC
:020000040030CA
:0D000100021F1EFF8381FF0FC00FE00F40A4
:00000001FF
