:100000004AEF05F00000000000EF00F000000000E3
:0A0010000000000000000000F3D71C
:08001C000AAE029E000E120064
:100024000B840BAE1DEF00F0010E036E026A016A31
:0A003400006A0A360232FF0E1200C5
:0E003E00026A016A006A086A036A000E120074
:10004C000B820BAE30EF00F00368026801680068A9
:08005C000A360232FF0E120009
:100064000D6A086A0050D8B4000C04180A6E0ABE5F
:100074000D1E0B6A04AE02D0041E042A00AE02D088
:10008400001E002A005004100A6E0ABE1FD004503D
:10009400085E003600340836045008260036060E82
:1000A4000C6E00340836045000B0085E00A0082628
:1000B40000360C2EF6D700A008260BB015D00DAED6
:1000C400000C001E002A081E082A000C04AE09D0E9
:1000D40000BE04D00050086E006AF1D7006A002AFE
:1000E400000C001E0B2AD3D7082A0450085CD8A49D
:0E00F400E6D7086A002A00AEE2D7FF0C120021
:0E010200ACB202D00000FCD75DC0ADFF120011
:100110000C6A0E6A0250D8A4A1EF00F001C002F0F0
:1001200000C001F0006A0E860250D8A4A1EF00F0D2
:1001300001C002F0016A0E960E880250D8B4B3EFE7
:1001400000F00E50035ED8A4D8A0B8EF00F0D8900D
:1001500002BEBDEF00F0003601360236032EA8EFD6
:1001600000F0B8EF00F0010E0C6E69DFC0EF00F098
:10017000020E0C6E57DFC0EF00F0040E0C6E4EDF67
:0201800012006B
:100182000A6A0350D8A40A800750D8A40A820A50E7
:10019200D8B424EF01F0030AD8B4DDEF00F00AB0BE
:1001A200D8EF00F006AE22EF01F020EF01F002AE30
:1001B20020EF01F022EF01F00250800B0A6E029E46
:1001C2000650800B069E0A18D8B4EEEF00F00A50D3
:1001D200D8B420EF01F022EF01F00750035CD8B44D
:1001E200F8EF00F0D8A014EF01F01AEF01F006507A
:1001F200025CD8B402EF01F0D8A014EF01F01AEFBC
:1002020001F00550015CD8B40CEF01F0D8A014EF56
:1002120001F01AEF01F00450005CD8B424EF01F0B1
:10022200D8B01AEF01F00A52D8B422EF01F020EF51
:1002320001F00A52D8B420EF01F022EF01F0D88089
:0E0242001200D8901200D880D884120012004A
:100250005DC004F05EC005F004C002F005C003F00C
:10026000044A052A5FC000F060C001F05F4A602ABE
:1002700000C0E9FF01C0EAFF02C0E1FF03C0E2FFE6
:10028000EECFE6FF02C0E9FF03C0EAFFEE5201E055
:0C029000E3D75DC000F05EC001F012007A
:08029C000B6A0B86FF0E120035
:1002A400086A096A000E07620364D7EF01F002507E
:1002B40006180A6E075003267E0ED8A068EF01F0D8
:1002C400035ED8B0DBEF01F06CEF01F0035ED8A061
:1002D400DFEF01F0028E068E02C00EF001C00BF0BB
:1002E40000C00DF000500402F4CF0CF001500502E0
:1002F400F4CF00F0F3CF08F00402F3500C26F450CE
:100304000822000E00220D500502F3500C26F45072
:100314000822000E002202500402F3500826F45072
:10032400002202500502016A000E0122F350002649
:10033400F45001220D500602F3500826F450002216
:10034400026A000E012202220B500602F35000261C
:10035400F4500122000E02220E500602F350012630
:10036400F450022202BEBFEF01F008360036013617
:1003740002360306D8B4DFEF01F0D2EF01F0D880E3
:10038400800E08640030000E002201220222D8A050
:10039400D2EF01F0023201320032034ADBEF01F006
:1003A4000AAE029E000EE1EF01F0010E46DEE1EF1F
:1003B40001F0020E49DEE1EF01F0040E31DE12001D
:0C03C4000E0E0D6E0D2EFED70000120074
:0C03D0000E0EC16E949094929494120052
:1003DC00020E4B6E010E4C6E5D0E4D6E000E4E6E8F
:1003EC00FF0E3F6EFF0E406E000E416E000E426E11
:1003FC00FF0E436EFF0E446E000E456E000E466EF1
:10040C00FF0E476EFF0E486E000E496E000E4A6ED0
:10041C00AC8A900EAB6E948E949C9EAA03D0AECFF9
:06042C0000F0FBD71200F6
:100432000900F5CFE6FF0006FBE10106F9E1120033
:10044200FF0E236EFF0E246EFF0E256EFF0E266E2C
:10045200C26A181C006E0050C116070EC012C08E70
:04046200C280120042
:10046600C26A181C006E0050C116070EC012C08E5C
:100476004FC000F000360090003600900050C212C7
:10048600C2809DDFC282C2A201D0FDD7C4CF01F0D7
:0E049600006AC3500012000E0112C290120044
:1004A4005B6A5C6A4FC057F050C058F051C059F0B5
:1004B40052C05AF05A50FF0A08E15950FF0A05E1A8
:1004C4005850FF0A02E15750FF0A0CE153C05DF097
:1004D40054C05EF0190E5F6E000E606EB7DE030E40
:1004E400006EEBD1010E556E59AE0ED0800E591828
:1004F400006E00C059F0552A53C0E1FF54C0E2FF1A
:100504002D0EE66E534A542A000E006E5A1808E166
:100514000050591805E10050581802E15750000ADC
:100524000BE153C05DF054C05EF01D0E5F6E000E13
:10053400606E8CDE006AC1D15A50FF0A08E159503E
:10054400000A05E15850000A02E15750000A0CE184
:1005540053C05DF054C05EF01F0E5F6E000E606EFF
:1005640075DE55C000F0A9D1000E046E000E056EB4
:10057400000E066E7F0E076E57C000F058C001F0E3
:1005840059C002F05AC003F0FADD010ED8B0000ED3
:10059400006E00521BE057C000F058C001F059C073
:1005A40002F05AC003F0000E046E000E056E200E19
:1005B400066E820E076E74DE00C057F001C058F05C
:1005C40002C059F003C05AF05C06CED7000E046E88
:1005D400000E056E200E066E820E076E57C000F0E8
:1005E40058C001F059C002F05AC003F0C8DD000E33
:1005F400D8B0010E006E00521BE057C000F058C086
:1006040001F059C002F05AC003F0CD0E046ECC0EB6
:10061400056E4C0E066E7B0E076E42DE00C057F070
:1006240001C058F002C059F003C05AF05C2ACED77A
:10063400FF0E5714086EFF0E5814096E7F0E5914DE
:100644000A6E000E5A140B6E08C004F009C005F0BF
:100654000AC006F00BC007F00436049005360636CF
:100664000736000E5714006E000E5814016E000E6B
:100674005914026EFF0E5A14036E00C057F001C0E5
:1006840058F002C059F003C05AF004505710006EDD
:1006940005505810016E06505910026E07505A103A
:1006A400036E00C057F001C058F002C059F003C0F7
:1006B4005AF07F0E5A5C006E00C056F0010E5A6E5E
:1006C40000C004F057C000F058C001F059C002F057
:1006D4005AC003F0045007E0003600900136023699
:1006E4000336FF0FF8D700C057F001C058F002C01E
:1006F40059F003C05AF053C0E1FF54C0E2FF5A500E
:10070400300FE66E534A542A800E5C18006E800E39
:10071400010A005C08E3800E060A006E800E5C1875
:10072400005C01E30AD053C0E1FF54C0E2FF2E0E87
:10073400E66E534A542A010E5B6E060E566E5650F0
:10074400000A54E05A6A57C000F058C001F059C07A
:1007540002F05AC003F00036009001360236033628
:1007640000360090013602360336575000265850A2
:100774000122595002225A50032200C057F001C0EE
:1007840058F002C059F003C05AF057C000F058C0E6
:1007940001F059C002F05AC003F00036009001364F
:1007A4000236033600C057F001C058F002C059F0B9
:1007B40003C05AF053C0E1FF54C0E2FF5A50300F57
:1007C400E66E534A542A5B50000A0EE15C065C5004
:1007D400000A0AE153C0E1FF54C0E2FF2E0EE66EA8
:1007E400534A542A010E5B6E5606A9D7FF0E5324B2
:1007F400E96EFF0E5420EA6EEE50300A05E1010E58
:10080400535E000E545AF2D7FF0E5324E96EFF0EC6
:100814005420EA6EEE502E0A04E1010E535E000EDF
:10082400545A5C50000A43E053C0E1FF54C0E2FF55
:10083400650EE66E534A542A800E5C18006E800ED4
:10084400000A005C0BE253C0E1FF54C0E2FF2D0E2E
:10085400E66E534A542A5C5000085C6E5CC056F045
:10086400800E090A006E800E5C18005C0FE20A0E0E
:10087400046E56C000F032EC00F053C0E1FF54C0E7
:10088400E2FF0050300FE66E534A542A0A0E046EFB
:1008940056C000F032EC00F008C000F053C0E1FF95
:1008A40054C0E2FF0050300FE66E534A542A53C03E
:0C08B400E1FF54C0E2FFE66A006A120097
:1008C000526A4FC0E9FF50C0EAFFEECF51F05150DD
:1008D000000A0DE051C05DF014DC522A52504F2442
:1008E000E96E000E5020EA6EEECF51F0F0D7120004
:1008F0000450000A12E10550000A0FE10650000AF8
:100900000CE10750000A09E1FF0E006EFF0E016EB8
:100910007F0E026EFF0E036EA7D0086A096A0750A9
:10092000D8B423EF05F00350D8B427EF05F00250F8
:1009300006180A6E028E068E0E6A02C008F001C00A
:100940000CF000C00DF004500D5E0550D8A0053C21
:100950000C5E0650D8A0063C085E086A0C6A0D6A58
:10096000D8A0BAEF04F0D890023201320032083237
:10097000010E0E6E0750035ED8A0C7EF04F07E0E86
:100980000E240326D8B02CEF05F0CDEF04F07E0E38
:100990000E240326D8A031EF05F0180E0B6E0D368D
:1009A0000C3608360036013602360E360450005E2C
:1009B0000550D8A0053C015E0650D8A0063C025E5A
:1009C00006340E120EA0E8EF04F00D80F3EF04F0F1
:1009D000045000260550D8B0053C01260650D8B07A
:1009E000062802260D900B2ECFEF04F019EF05F02C
:1009F000D8900036013602360E360450005E05509F
:100A0000D8A0053C015E0650D8A0063C025E063424
:100A10000E10010B0D26D8B00C2AD8B4082AD8A481
:100A200019EF05F008320C320D32032AD8B42CEF3E
:100A300005F00AAE089E0850026E0C50016E0D5073
:100A4000006E34EF05F0010E29DC34EF05F0020EE4
:100A50001FEC00F034EF05F0040E26EC00F034EF4C
:0A0A600005F0080E12EC00F0120081
:100A6A000050086E0150006E016A026A036A0B6A3E
:100A7A000C6A960E036E0A6A00C001F008C000F004
:0A0A8A00086A026A88EC00F012000E
:100A94003DEC06F0D4DC9ADCB886B06ACF0EAF6EBB
:100AA400AC849ADC4F6ADDDCDEDF00C027F001C0D5
:100AB40028F002C029F003C02AF0140E046EAE0E12
:100AC400056E230E066E840E076E10DF00C02BF039
:100AD40001C02CF002C02DF003C02EF000C04FF076
:100AE40001C050F002C051F003C052F02F0E536EFB
:100AF400000E546ED5DC2F0E4F6E000E506EDEDEEF
:100B0400150E4F6E000E506ED9DE060E0B6E130ED0
:100B14000C6EAD0E0D6E0D2EFED70C2EFCD70B2ECB
:100B2400FAD700000000000E046E000E056E200EC1
:100B3400066E810E076E2BC000F02CC001F02DC094
:100B440002F02EC003F0C1EC00F0010ED8B0000E8C
:100B5400006E005204E082808282828483D0000E80
:100B6400046E000E056E200E066E810E076E2BC0FD
:100B740000F02CC001F02DC002F02EC003F0C1EC37
:100B840000F0000ED8B0010E006E00521CE0000E02
:100B9400046E000E056E480E066E820E076E2BC0A4
:100BA40000F02CC001F02DC002F02EC003F0C1EC07
:100BB40000F0010ED8B0000E006E005204E08290E6
:100BC400828282844FD0000E046E000E056E480EA1
:100BD400066E820E076E2BC000F02CC001F02DC0F3
:100BE40002F02EC003F0C1EC00F0000ED8B0010EEC
:100BF400006E00521CE0000E046E000E056E340EF2
:100C0400066E830E076E2BC000F02CC001F02DC0C1
:100C140002F02EC003F0C1EC00F0010ED8B0000EBB
:100C2400006E005204E08290829282841BD0000EF7
:100C3400046E000E056E340E066E830E076E2BC016
:100C440000F02CC001F02DC002F02EC003F0C1EC66
:100C540000F0000ED8B0010E006E005203E0829046
:080C6400829282941FD7FFD792
:100C7A0010EE15F00E0E006E010E016E6C0EF66E81
:0E0C8A000C0EF76E000EF86E19EC02F0120060
:030C6C0020200045
:010C6F003054
:040C70004E614E0083
:020C740030004E
:040C7600494E46009D
:020000040030CA
:0D000100021F1EFF8381FF0FC00FE00F40A4
:00000001FF
